:020000040800F2
:10000000002000204D2E0008292C0008352C000867
:1000100000000000000000000000000000000000E0
:100020000000000000000000000000003D2C00085F
:100030000000000000000000492C000805810008B5
:100040009D2E00089D2E00089D2E00089D2E000864
:100050009D2E00089D2E00089D2E00089D2E000854
:100060009D2E0008295C00089D2E00089D2E00088A
:100070009D2E00089D2E00089D2E00089D2E000834
:100080009D2E00089D2E0008000000009D2E0008F7
:100090009D2E00089D2E00089D2E00089D2E000814
:1000A0009D2E00089D2E00089D2E00089D2E000804
:1000B000A5460008000000009D2E0008000000007A
:0400C0005FF808F1EC
:1000C40010B5064C2378002B07D1054B002B02D02A
:1000D400044800E000BF0123237010BD8004002009
:1000E40000000000A0B80008084B10B5002B03D096
:1000F4000749084800E000BF07480368002B00D107
:1001040010BD064B002BFBD09847F9E70000000018
:1001140084040020A0B8000880040020000000002F
:10012400002243088B4274D303098B425FD3030A32
:100134008B4244D3030B8B4228D3030C8B420DD345
:10014400FF22090212BA030C8B4202D312120902D3
:1001540065D0030B8B4219D300E0090AC30B8B4211
:1001640001D3CB03C01A5241830B8B4201D38B03BF
:10017400C01A5241430B8B4201D34B03C01A524164
:10018400030B8B4201D30B03C01A5241C30A8B42A7
:1001940001D3CB02C01A5241830A8B4201D38B0292
:1001A400C01A5241430A8B4201D34B02C01A524136
:1001B400030A8B4201D30B02C01A5241CDD2C309A8
:1001C4008B4201D3CB01C01A524183098B4201D324
:1001D4008B01C01A524143098B4201D34B01C01A0F
:1001E400524103098B4201D30B01C01A5241C30887
:1001F4008B4201D3CB00C01A524183088B4201D3F6
:100204008B00C01A524143088B4201D34B00C01AE1
:100214005241411A00D20146524110467047FFE74D
:1002240001B5002000F0F0F802BDC0460029F7D067
:1002340076E7704703460B437FD4002243088B4282
:1002440074D303098B425FD3030A8B4244D3030B59
:100254008B4228D3030C8B420DD3FF22090212BA1E
:10026400030C8B4202D31212090265D0030B8B429A
:1002740019D300E0090AC30B8B4201D3CB03C01A84
:100284005241830B8B4201D38B03C01A5241430B5F
:100294008B4201D34B03C01A5241030B8B4201D34F
:1002A4000B03C01A5241C30A8B4201D3CB02C01ABA
:1002B4005241830A8B4201D38B02C01A5241430A32
:1002C4008B4201D34B02C01A5241030A8B4201D321
:1002D4000B02C01A5241CDD2C3098B4201D3CB01C8
:1002E400C01A524183098B4201D38B01C01A524177
:1002F40043098B4201D34B01C01A524103098B427B
:1003040001D30B01C01A5241C3088B4201D3CB0065
:10031400C01A524183088B4201D38B00C01A524148
:1003240043088B4201D34B00C01A5241411A00D2F8
:1003340001465241104670475DE0CA0F00D0494261
:10034400031000D34042534000229C4603098B42D1
:100354002DD3030A8B4212D3FC22890112BA030A59
:100364008B420CD3890192118B4208D389019211DB
:100374008B4204D389013AD0921100E08909C30960
:100384008B4201D3CB01C01A524183098B4201D362
:100394008B01C01A524143098B4201D34B01C01A4D
:1003A400524103098B4201D30B01C01A5241C308C5
:1003B4008B4201D3CB00C01A524183088B4201D334
:1003C4008B00C01A5241D9D243088B4201D34B004F
:1003D400C01A5241411A00D20146634652415B1091
:1003E400104601D34042002B00D549427047634672
:1003F4005B1000D3404201B5002000F005F802BDB7
:100404000029F8D016E770477047C0468446081C98
:100414006146FFE71FB500F02FFB002801D400213F
:10042400C8421FBD10B500F0BBFA4042013010BDF8
:1004340010B500F021FB002801DB002010BD0120D5
:1004440010BDC04610B500F017FB002801DD0020E8
:1004540010BD012010BDC04610B500F0C9FA002837
:1004640001DC002010BD012010BDC04610B500F015
:10047400BFFA002801DA002010BD012010BDC046DB
:10048400F8B54A02430244004E00C50F240E28006A
:100494009B09360EC90F92098D4259D0A01B002822
:1004A40000DC8DE0002E1AD1002A00D079E05A0732
:1004B40004D00F221A40042A00D004335A0138D53C
:1004C4000134FF2C00D189E028009B015B0AE4B2CF
:1004D4005B02E4055B0A2343C0071843F8BDFF2C05
:1004E400E5D08021C9040A431B2800DD89E01600F9
:1004F4002021C640081A8240511E8A4132439B1A69
:100504005A0114D59B019E09300002F06DFB053899
:100514008640844265DC041B330020200134E34020
:10052400041BA640721E964100243343BFE75A07BA
:10053400BFD1DF082800FF2C2FD1002F00D187E086
:100544008022D20313003B435B025B0AFF24BFE714
:10055400A11B002949DD002E29D0FF2CA7D080261D
:10056400F60432431B2900DD8DE017002026CF401E
:10057400711A8A40511E8A413A439B185A01D6D5B2
:100584000134FF2C64D0012276491A405B080B40E9
:1005940013438CE7031ECAD100207B025B0AE4B23A
:1005A40096E701380028AAD0FF2C9DD17FE7002AC6
:1005B40000D17CE701390029DFD0FF2CD2D176E7C6
:1005C400002820D1601CC0B2012853DD80279E1A68
:1005D400FF0437402FD0D61A0D0095E728000023DA
:1005E40076E7614B241A334061E700294DD1611C41
:1005F400CEB2012E2FDDFF292AD09B185B080C00F8
:1006040055E701227BE7002C1BD1002B5BD0C043B4
:1006140000280CD0FF2E7ED01B2800DD92E01D00A8
:100624002024C540201A8340581E83412B43D31AEB
:1006340034000D0064E7002E00D065E7002000249C
:10064400ABE7FF2E67D08024E40440422343E3E772
:10065400FF2400233CE7002C61D1002B7ED0002A2C
:1006640000D124E79B185A0100D460E73E4A0C00ED
:1006740013401CE7002C1ED1002B2FD1002A66D07A
:1006840013000D0013E7012277E7002C1FD1002B84
:100694005AD0C94300290BD0FF2E50D01B295FDC50
:1006A4001F002024CF40611A8B40591E8B413B43CD
:1006B4009B18340062E7002B1CD1002A4AD0130097
:1006C4000D00FF24F3E6130034000D00EFE6FF2EC7
:1006D40035D08024E40449422343DFE7002A00D1D3
:1006E400E5E68027981AFF04074000D152E7D31AA1
:1006F4000D00DCE6FF24002A00D1D8E68020DB08C8
:10070400C003034204D0D208024201D113000D00F9
:10071400DB00FF24CBE61300FF240D00C7E6002B0B
:100724000DD0FF24002A00D1C1E68021DB08C903D3
:100734000B42EDD0D2080A42EAD11300E8E71300D5
:10074400FF24B4E6012372E713003400AFE6002768
:10075400002022E780270020FF03F1E61300A6E62D
:100764000123A5E7FFFFFF7DFFFFFFFBF0B5564622
:1007740044465F464D46F0B444024600C70F83B07A
:100784008846650A360EBA463DD0FF2E22D0002395
:10079400EC00802599469B46ED0425437F3E434665
:1007A4005C025800DB0F640A000E984636D0FF281E
:1007B40030D080230021E400DB041C437F38301A4E
:1007C4000190484642460843724E800030587A40B1
:1007D40013008746002D44D108239946063B9B46C7
:1007E400DDE70122FF2000241A406402C305640AE5
:1007F400D2071C431443200003B03CBC90469946E6
:10080400A246AB46F0BD002D20D104239946033BFC
:100814009B46C4E7002C17D1022102E0002C0AD128
:100824000121321A01924A4643460A435A48920029
:1008340082587B409746200002F0D6F9431F763059
:100844009C4040420021BAE70321B8E7280002F0A7
:10085400CBF9431F9D4000237630464299469B4680
:100864009DE70C239946093B9B4698E78024002288
:10087400E403FF20B9E70024C2468B465A46534698
:10088400022AAED0032A7DD0012A31D101220020D0
:100894001A400024A9E70122101A1B2856DD1A4029
:1008A40000200024A1E78023DB031D424BD18023D9
:1008B400DB032B435C02640A3A00FF2095E76D01D9
:1008C4006001854230D2019A0024013A01921B2230
:1008D4000127290064006D00002901DBA84201D82A
:1008E4002D1A3C43013A002AF3D16A1E95412C4348
:1008F40001987F300028CEDD620704D00F22224009
:10090400042A00D00434220103D5244A0198144057
:100914008030FE2800DD64E70122A401640AC0B22D
:100924001A4062E72C00A9E72D1A1A220124CFE706
:100934006B02BCD500248023DB031C436402640ADD
:100944004246FF2051E71C42B3D1F4E721002022A4
:10095400C140101A8440621E94410C43620704D0C3
:100964000F222240042A00D00434620104D501225B
:1009740001201A40002438E70122A401640A1A4025
:10098400002032E78023DB031C436402640A5246DE
:10099400FF202AE7A0B30008E0B30008FFFFFFF739
:1009A400430270B542004C005D0AC30F4802120EA8
:1009B400460A240EC90FFF2A0FD0FF2C11D00120A4
:1009C400A24200D070BDB542FCD18B420DD0002AAA
:1009D400F8D12800431E9841F4E70120002DF1D1FD
:1009E400EBE70120002EEDD1E9E70020EAE7C0465D
:1009F4004302F0B542005D0AC30F4802440A4800AE
:100A0400120E000EC90FFF2A1FD0FF2822D0002A81
:100A140009D16E426E4100280FD1002C0DD1002067
:100A2400002D09D005E0002801D1002C01D08B4213
:100A340013D0584201231843F0BD002EF7D048428A
:100A44004141012049420843F6E7002DDDD0022050
:100A54004042F1E7002CDAD0F9E78242E9DC04DB1A
:100A6400A542E6D80020A542E6D2584243410120DF
:100A74005B421843E0E7C0464302F0B542004C0035
:100A84005E0AC30F4802120E450A240EC90FFF2A3C
:100A940017D0FF2C19D0002A0BD170427041002CC2
:100AA40017D0002807D04842414101204942084359
:100AB400F0BD002C13D08B4214D0584201231843AC
:100AC400F6E70220002EF3D1E3E70220002DEFD158
:100AD400E1E7002DE5D10020002EE9D0EDE7002D5F
:100AE400E9D1EAE7A242E8DC04DBAE42E5D8002023
:100AF400AE42DDD25842434101205B421843D7E75E
:100B0400F0B557464E4645464300E0B44602884693
:100B1400760A1F0EC40F002F47D0FF2F25D00023C5
:100B240080259A469946F600ED042E437F3F4346BE
:100B340042465D02D20F5B006D0A1B0E904640D008
:100B4400FF2B39D080220020ED00D20415437F3BD7
:100B5400FB1842465746591C62408C4607430F2FE8
:100B64005CD86F49BF00C9598F46002E45D1082370
:100B74009A46063B9946DAE7424602282DD00328D6
:100B840000D1C3E0012800D0A2E0002500260240E5
:100B9400D4B27602ED05760A2E43E40726433000EC
:100BA4001CBC90469946A246F0BD002E1AD10423DF
:100BB4009A46033B9946BAE72A00511E8A41901C83
:100BC400C6E70120002DC3D0280002F00DF8431F12
:100BD40076309D4043420020BAE70124FF251440AB
:100BE4000026D6E7300001F0FFFF431F9E4000239C
:100BF400763047429A46994699E70C239A46093B30
:100C0400994694E780260024F603FF25C1E73500C2
:100C14004846B2E7350022004846AEE72904090CED
:100C24000800370C3604360C2C0C794370436743A8
:100C34007443060C64183619B14203D98021490261
:100C4400884647440004000C310409188D01681ECD
:100C54008541890E2943350CED19AD010D43290158
:100C640004D5012369081D4063460D4319007F31F3
:100C7400002925DD680704D00F202840042800D06F
:100C84000435280103D5274980330D401900FE2976
:100C9400A3DC0124AD016E0A1440CDB279E78020B3
:100CA400C003064207D0054205D128434602760A0E
:100CB4004446FF256DE706437602760AFF2568E77A
:100CC4000124611A1B2905DD14400025002660E774
:100CD4006346CBE72E002023CE40591A8D406B1E6D
:100CE4009D412E43730704D00F233340042B00D0BF
:100CF4000436730104D5012401251440002648E775
:100D04000124B601760A1440002542E78026012416
:100D1400F6032E437602760A1440FF2539E7C046CF
:100D240020B40008FFFFFFF7F8B54A024E00430263
:100D34004400240EC50F9B09360EC90F9209FF2EDD
:100D440000D183E001204140A01BA9425CD00028CF
:100D540000DC95E0002E1CD1002A00D081E05A0767
:100D640004D00F221A40042A00D004335A013BD580
:100D74000134FF2C00D191E001209B015B0AE4B215
:100D840005405B02E4055B0AED0723432B4318008F
:100D9400F8BDFF2CE3D08021C9040A431B2800DDE1
:100DA40090E016002021C640081A8240511E8A4154
:100DB40032439B1A5A0115D59B019E09300001F05C
:100DC40013FF0538864084426CDC041B330020206A
:100DD4000134E340041BA640721E964100243343B1
:100DE400BDE70D005A07BCD1DF0801231D40FF2CCD
:100DF40033D1002F00D190E08022D20313003B4373
:100E04005B025B0AFF24BCE700284FDD002E2ED0D6
:100E1400FF2CA4D08025ED042A431B2800DD97E095
:100E240016002025C640281A8240501E82413243B3
:100E34009B185A01D5D50134FF2C6DD001227B4873
:100E44001A405B08034013430D0088E7002A00D0D2
:100E54007AE777E7031EC5D100257B025B0AE4B27B
:100E64008FE701380028A4D0FF2C97D177E7002A18
:100E740000D174E701380028DAD0FF2CCDD16EE719
:100E8400002821D1601CC0B2012858DD80279E1A99
:100E9400FF0437402FD0D61A0D008FE701231D40E1
:100EA40000236EE7624B241A334058E7002851D1DF
:100EB400601CC6B2012E33DDFF282DD09B185B08C1
:100EC40004004CE7012274E7002C1AD0FF2E1FD037
:100ED4008024E404404223431B2800DD96E01D00E7
:100EE4002024C540201A8340581E83412B43D31A23
:100EF40034000D005EE7002E00D05FE700250024DB
:100F0400ABE7002B44D0C0430028F0D0FF2EE3D140
:100F14001300FF240D0022E70D00FF24002330E717
:100F2400002C5DD1002B7DD0002A00D117E79B183F
:100F34005A0100D456E73E4A040013400FE7002C40
:100F44001ED1002B2FD1002A65D013000D0006E717
:100F540001226DE7002C1FD1002B59D0C04300287B
:100F64000BD0FF2E4FD01B285EDC1D002024C54073
:100F7400201A8340581E83412B439B18340058E7A2
:100F8400002B1CD1002A49D013000D00FF24E6E6F3
:100F9400130034000D00E2E6FF2E34D08024E40474
:100FA40040422343DFE7002A00D1D8E68027981A7D
:100FB400FF04074000D14DE7D31A0D00CFE6FF240C
:100FC400002A00D1CBE68020DB08C003034204D012
:100FD400D208024201D113000D00DB00FF24BEE65B
:100FE400002B10D0FF24002A00D1B8E68020DB08B3
:100FF400C003034203D0D208024200D11300DB0035
:101004000D00FF24ABE61300FF24A8E601236EE7DE
:1010140013003400A3E6002700251EE780270025DF
:10102400FF03E9E613009AE60123A6E7FFFFFF7D2D
:10103400FFFFFFFB4302590A4300C20F1B0E0020AF
:101044007E2B0EDD9D2B0DDC802000040143952BAF
:101054000BDC9620C31AD9400B005842002A00D159
:1010640018007047034BD018FBE7963B99400B00E0
:10107400F3E7C046FFFFFF7F70B5002830D0C317E9
:10108400C5185D40C40F280001F0AEFD9E231B1A55
:10109400962B0DDC9622D21A95406A02520AD8B2D7
:1010A4005202C005520AE40702432243100070BDF5
:1010B400992B19DC9922D21A9540124A2A406907C1
:1010C40004D00F210D40042D00D00432510103D56A
:1010D4000C4B1A409F231B1A9201520AD8B2DFE725
:1010E400002400200022DBE705222E00121AB92179
:1010F400D6402A00C91A8A40551EAA413500154314
:10110400DBE7C046FFFFFFFB70B5041E28D001F0EB
:101114006BFD9E231B1A962B0ADC9622D21A94404E
:101124006202520AD8B25202520AC005104370BD7C
:10113400992B18DC9922D21A9440114A2240610753
:1011440004D00F210C40042C00D00432510103D5EB
:101154000B4B1A409F231B1A9201520AD8B2E2E7A2
:1011640000200022DFE705222500121AB921D5400C
:101174002200C91A8A40541EA2412C001443DCE701
:10118400FFFFFFFBF8B556465F464D464446F0B4B4
:101194000F00FD0FAA4609037C002E005F00450FD7
:1011A400490A7F0D2943C5001803BC46400A570F5E
:1011B400640DDB0F3843D2009A4500D1AAE066469D
:1011C400A61B002E00DCFFE06346002B39D1030090
:1011D400134300D0D9E06B0709D00F232B40042B15
:1011E40005D02B1DAB42AD416D4249191D000B02C8
:1011F40000D482E0CA4B01349C4200D1FEE00A00D4
:101204005646C84BED081A40500764055202054380
:10121400120B640D002112030B0D1B056405120B48
:101224001A436308C04CF60714401C436400640866
:101234003443280021003CBC90469946A246AB4664
:10124400F8BDB74B9C42C6D080231B041843382EEC
:1012540000DDEBE01F2E00DD1EE120239B1B9C46DE
:1012640003006746BB40984613004746F3403B43A0
:101274006746BA40571EBA4113430200F240EB1AC4
:101284009D42B6411D008A1A7642911B0B0231D54C
:101294004A02560A002E00D1B4E0300001F0A4FC4A
:1012A4000300083B1F2B00DDB5E020222900D21AE1
:1012B400D1409E400A009D4032439C4200DDB1E093
:1012C4001C1B631C1F2B00DDD5E02021140028000B
:1012D400C91A8C40D8408D400443DA40681E8541C9
:1012E40011002543002476E74146314300D134E21E
:1012F400310045466B0700D06FE756464807ED08B6
:10130400C9080543864B9C4235D00A036405120B79
:10131400640D7FE76346E31A9B46002B00DC8BE0F9
:101324006746002F3CD07E4FBC4200D153E7802754
:101334003F0438435B46382B00DCF7E00243501E81
:1013440082410020D2B253194218AB4289411D0098
:10135400494289180B02CDD5714B01349C4200D10E
:101364003DE101206F4A6B080A4028401843D50725
:10137400054351082FE72B000B4300D1CBE1802319
:101384001B030B431A03120B44E7013E002E6DD1DD
:10139400AE1AB5429B41091A5B42C91A350075E77A
:1013A4000700174300D116E701235B429C46E34440
:1013B4005B46002B00D0E0E0AA18AA429B41091822
:1013C4005B4259181500C5E7002E75D1661C7605D9
:1013D400760D012E00DCF3E0AE1AB0464545BF4160
:1013E4000E1A7F42F61B370200D48FE0551BAA4227
:1013F400B641411A76428E1B9A464BE75646002266
:10140400002507E7280001F0EFFB20300300083B2C
:101414001F2B00DC49E72A002838824000259C4223
:1014240000DC4DE73F49E41A1140D4E60243501E64
:101434008241D3B2002222E7002B00D0F3E0631CE8
:101444009C465B055B0D012B00DC9FE0344B9C4507
:1014540000D1C3E0AA180918AA42804140424118A9
:10146400CD075208154349086446B4E62C4B9C4208
:1014740000D0ECE6AFE611001F3CE1400C00202B4D
:1014840000D17FE04021CB1A9A4015436A1E954152
:101494000021254300242DE733000700203BDF40D3
:1014A4003B00202E70D04027BE1BB0400243501E8C
:1014B400824113430022E2E6002C4FD0184CA4458D
:1014C40000D1ABE08024240476422143382E00DD91
:1014D400DFE01F2E00DD43E12027BC1BA1460C00EA
:1014E4004F46BC40A0462C004746F4403C434F4680
:1014F400BD406F1EBD41F1402C43151BAA429241D1
:10150400411A5242891A64469A46BFE64146454604
:10151400314300D0BEE6002600240025F2E6C04692
:10152400FF070000FFFF7FFFFFFF0F801F2B59DC29
:101534002027FF1ABC46070063469F405B46B94616
:101544001700DF40B8464F4643461F4363469A4060
:10155400531E9A415B463A43D840F4E60C002C43B0
:101564005CD0F643002E55D1551BAA42A441411A22
:101574006442091B9A46644688E6964FBC4200D0F2
:10158400D8E628E6002280E700208FE70B002B43F3
:10159400002C00D0C2E0002B00D101E10300134372
:1015A40000D118E6AB18AB42B6410918764271185F
:1015B4000A0200D409E1884A1D00114064460AE683
:1015C400002C5BD10E002E4300D08AE001001143B1
:1015D40000D1C2E0010015009A46FCE564460021F2
:1015E40000258FE620235B429C46DC4463460700CB
:1015F400DF405B46BC46202B00D1ACE040235F4675
:10160400DB1B98400243501E8241634613431A0079
:10161400002098E66F4CA44500D057E70100150060
:1016240064469A46D7E5002C39D10C002C436ED081
:10163400DB43002B1AD0674CA44568D0382B00DD5F
:10164400A4E01F2B00DDAEE020240F00E41AA74025
:10165400B9462F00DF40B846A3464F4644462743C9
:101664005C46A5406C1EA541D9403D43AD1895424A
:101674009B4109185B42591864466BE60C002C43E5
:1016840015D1010011437BD0010015009A46514C3D
:10169400A1E50D43691E8D410021ECB22DE74D4CAF
:1016A400A44534D0802424045B422143C6E70400CB
:1016B40014434ED0ED084C072C438025C9082D0354
:1016C400294208D0C6082E4205D1D2084107114349
:1016D4000C009A463100620FC900E50011433D4CED
:1016E40079E50600164300D175E5AE1AB0464545C6
:1016F400BF410E1A7F42F61B370200D4F4E5551B96
:10170400AA42B641411A7642891B9A4663E5010012
:10171400150064465FE5002200257BE5002B3BD0E5
:101724000300134315D0ED084B072B438025C9084C
:101734002D03294207D0C4082C4204D141070B00D1
:101744002100D2081343C9005A0F1143DD00214C74
:1017540041E5204C3FE5002054E700260025D1E573
:1017640034000F00203CE7403C00202E2BD04027C3
:10177400BE1BB1400D43691E8D4100212C43BCE6C4
:10178400802100260903134C0025BBE50D43691E87
:101794008D410021EDB269E7010015000D4C1AE5F9
:1017A4000100150017E51C000F00203CE7403C0039
:1017B400202B0CD04027FB1A99400D43691E8D4104
:1017C4000021254352E70021D4E71D0092E50021C2
:1017D400F3E7C046FF070000FFFF7FFFF0B5564662
:1017E4004D4644465F46F0B41D000E034C00CB0F3B
:1017F40087B0070092468146360B640D98466AD03E
:101804006D4B9C4235D08022430F12041343F600E3
:101814001E43C3009946694B00279C460023644439
:1018240002932B0368001B0BED0F51469B46400DA2
:10183400009500D178E0604B98426CD05B46DA00AA
:101844004B0F802109040B4313439B465346D90095
:101854005A4B9C46002360444246201A6A409246F2
:1018640001901F430F2F00D9B0E05548BF00C05965
:101874008746374300D088E000239946023308277F
:1018840000260293CDE74346B34649460093029BA4
:10189400009A9246022B00D0BFE100215346012258
:1018A400002689461A40444B002136030C0D2405BA
:1018B400360B2643434C1B0526401E437600D207B5
:1018C400760816434846310007B03CBC904699461A
:1018D400A246AB46F0BD330003434FD0002E00D1E7
:1018E400BCE1300001F080F903000B3B1C2B00DD50
:1018F400ADE11D220100D31A08393A008F408E4011
:10190400DA40B9461643304B00279C460023604416
:101914004442029385E753465A4613432CD100238D
:1019240000219B46023397E70B4320D05B46002BF4
:1019340000D19EE1584601F057F903000B3B1C2BE4
:1019440000DD8FE102005946083A91408B461D2183
:10195400CB1A5146D9400B0059460B4351469B467E
:101964009140194B9C4660444042002374E7002395
:1019740000219B4601336FE703236DE7002399465B
:1019840001330427002602934BE703230C27029319
:1019940047E70122D51A382D00DCB0E153461A403E
:1019A40000210023002689467EE7002380269946ED
:1019B40000223603004B77E7FF07000001FCFFFF1E
:1019C40060B40008FFFF0F80F30300005E4500D9F8
:1019D40072E100D16DE1019B4D46013B019300236F
:1019E400340002935B461E020B0E1E430B0203934C
:1019F400330C994633041B0C494620000093FEF730
:101A04008FFB009B3700434306004946200098465D
:101A1400FEF70CFC2C0C09040C43A04509D9E4196D
:101A2400731EA74200D95CE1A04500D859E1023EEB
:101A3400E4194346E41A49462000FEF771FB03000B
:101A4400009A80465343494620009B46FEF7EEFB2E
:101A54002A040904120C0A4393450DD94346D219AA
:101A6400013B974200D93AE1934500D837E102237C
:101A74005B429C46D219E0445B46D21A4346360484
:101A840033439B460399180C0B0C1D000593090462
:101A94005B46090C0C001B041B0C44430491594382
:101AA4006B4368431B190D0CEB189C4203D980242B
:101AB4006402A44660441C0C09041B04090C20188D
:101AC4005D18824200D2DEE000D1D7E0161A029BF4
:101AD4009C465D1BAC459B415B42F61AB74200D164
:101AE40006E149463000FEF71BFB009B040043431C
:101AF400494630009846FEF799FB2E0C09040E4324
:101B0400B04509D9F619631EB74200D9F3E0B045D0
:101B140000D8F0E0023CF6194346F31A494618008F
:101B24000293FEF7FDFA009B0600434349460298E0
:101B34009846FEF77BFB2D0409042D0C0D43A845A4
:101B440009D9ED19731EAF4200D9D6E0A84500D8D3
:101B5400D3E0023EED192404210043463143049EA0
:101B6400059A3000ED1A0B040C0C1B0C5843664309
:101B7400534354439A19030C9B189E4203D9802261
:101B84005202944664441A0C00041B04000C1419F9
:101B94001B18A54250D34DD001231943964A019BEB
:101BA40094466344002B00DCF3E64A0709D00F2275
:101BB4000A40042A05D00A1D8A42894149428B44BD
:101BC40011005A46D20108D55A468C4B1A40934606
:101BD4008022D2009446019B6344894A934200DDEB
:101BE4005BE65A46C908500708435602514601228B
:101BF4005B058146360B5B0D0A4055E680231B03CB
:101C04001E4211D05A461A420ED15E461E43360376
:101C1400360B2A0089467B4B46E6032B00D1E1E0D4
:101C2400012BBBD11A40BBE61E433603360B42469A
:101C3400744B39E6002BB1D07D194A1EAF4252D9FC
:101C44001100A542A8D1039A9A42A5D1A6E70300A0
:101C54003E00283B9E400023994654E600F0C4FF12
:101C6400203041E603005246283B9A400021934627
:101C740077E6504600F0B8FF20305EE6029B00266F
:101C8400AB4200D323E7039E0299B44661448846DD
:101C9400B045B6415B467642F619B218013B029153
:101CA400974213D290424FD800D18EE0161A9B4629
:101CB4000DE7894500D28EE674084B46F6073500D9
:101CC4005B081D434B46DB0702938BE69742EDD13D
:101CD4000399029CA142E5D93E1A9B46F7E6984631
:101CE400CAE61E00A5E6AC423ED874D0110053E704
:101CF4000121494252E71C000EE71E002BE71F2D6D
:101D04003CDC20230A0058465B1B9840EA4099407B
:101D14000243481E81415E461143EE404B0709D001
:101D24000F230B40042B05D00B00191D99429B4136
:101D34005B42F61833023CD55346012200211A4077
:101D4400002601238946AFE502235B429C46039C9F
:101D5400E344A446029B63449846A045B6417642B8
:101D6400F6190293B218B1E603988A1E4100814223
:101D7400B6417642F619AD19039161E71F2252422A
:101D8400D31A5A46DA401300202D29D0402258464F
:101D9400551BA8400143481E814107200B431840AE
:101DA4000026002809D00F2200261A401900042A10
:101DB400BBD10B0070077602360BDB080343994650
:101DC400012253461A4000236EE502998D42BBD886
:101DD4009B4600267BE603989842C5D3110032E760
:101DE4000020D7E780265B4636031E433603360BB6
:101DF400009A8946034B57E5FF030000FFFFFFFEEF
:101E0400FE070000FF070000F0B55F4656464D464A
:101E14004446F0B40D0399464E002B0B87B00700DF
:101E2400924680469B46760DCC0F002E69D06D4BB2
:101E34009E4235D05B468022DD001204430F1343DB
:101E44002B439B46C3009846674B00279C460023C0
:101E5400664401934A4615035000D20F53462D0B96
:101E6400400D914600D176E05E4A90426CD08022CB
:101E74005B0F120413435C4AED0094461D43534622
:101E84000022DB00604449463618701C6140029011
:101E940017430F2F00D9AFE05448BF00C759BF46BE
:101EA4005B461F4300D088E000239B4698460233DC
:101EB40008270193CEE74946022A6AD0032A00D1B3
:101EC40009E2012A00D0BBE11140002200230025D1
:101ED4009046CCB200212D030A0D12052D0B15439B
:101EE400434A1B0515401D436D00E4076D08254357
:101EF4004046290007B03CBC90469946A246AB46F2
:101F0400F0BD034352D05B46002B00D18AE1584612
:101F140000F06AFE03000B3B1C2B00DD7BE11D225D
:101F2400D31A3A0001005D46DA4008398D401300A7
:101F34008F402B439B46B8462E4B00279C460023DC
:101F440060444642019385E752462A432CD100253A
:101F54000023022297E752462A4321D0002D00D1C4
:101F640054E1280000F040FE03000B3B1C2B00DD75
:101F740046E11D21CB1A51460200D9405346083A86
:101F8400954093400D431B4A9446604440420022CE
:101F940079E7012400220C40124B0025904699E772
:101FA4000025002301226EE703226CE700239B46F1
:101FB40098460133042701934CE703230C2701932C
:101FC40048E700238025984600242D03054B81E72C
:101FD4005D464346019A6FE75D4643462100019AF8
:101FE4006AE7C046FF07000001FCFFFFA0B4000839
:101FF400FFFF0F80F30300004246120C91461A0CB7
:102004009446424617044A461B041B0C5A43604636
:1020140090464A4642431000039262461C003F0C1D
:102024007A437C4342440192220C9246019A5244E0
:10203400904506D98246802040028046C2445046DC
:102044000390100C049048462404240C1204121922
:1020540005922A0C2D042D0C68432C008246484618
:102064007C4350438146200C8046574357444744A1
:10207400BA4503D9802040028046C144380C3F044D
:10208400B84648442404240C01900498A0444044D5
:1020940004905846000C814658460404200C82469D
:1020A400070048465F434C464343604660436446EA
:1020B400834650464443380C8446E4186444A3429F
:1020C40003D980235B029C46E34448463F04230C27
:1020D4003F0C2404E419574668436F4384464D4635
:1020E400504655434243380C814662444A445B445B
:1020F400944503D9802040028446654403983F04F4
:10210400834604983F0C8446E344C34580414042DF
:102114008246100484460198674484466744A34475
:10212400BC46A345A4419946D44464428742BF4176
:10213400D4458041E144A04699459B417F424042B9
:10214400C8440743120CBA18A045A4415F423B009F
:1021540064422343D71843467D19DB0D6D021D43AA
:102164005B465A02059B1A43531E9A415B46DB0D9C
:102174001A4343465B021343EA0107D501225C0874
:1021840013402343EA07029E13436D08574AB218CB
:10219400002A4BDD580709D00F201840042805D029
:1021A400181D98429B415B42ED180300E80104D5D9
:1021B4004F4A15408022D200B2184E48824200DDB8
:1021C400E7E60124DB08680718436D0253058046DF
:1021D4002D0B5B0D0C407DE6802259461203114203
:1021E40008D0154206D115432D0398462D0B4C46B5
:1021F400414B6FE65D4615432D032D0B3E4B69E6BF
:1022040003005546283B9D400023BCE6504600F0A1
:10221400EBFC2030A8E60300283B9F400023BB468C
:10222400984689E600F0E0FC203073E60124A61A03
:10223400382E07DD00220C4000230025904649E695
:10224400029EA3E71F2E20DC20222C001800921BE4
:10225400F040944093400443581E83411C43F5408E
:10226400630709D00F232340042B05D023001C1D32
:102274009C4292415242AD182B021FD501240022E8
:102284000C4001230025904624E61F202C004042E8
:10229400821AD440202E1CD04022961BB5402B43DA
:1022A400581E83410720234318400025002809D0E5
:1022B4000F2200251A401C00042AD8D123006807E5
:1022C4006D022D0B0124DB08034398460C400023C8
:1022D40000E60025E3E780220124120315432D03C1
:1022E40098462D0B0C40044BF4E5C046FF03000058
:1022F400FFFFFFFEFE070000FF070000F0B5574692
:102304004E464546E0B40E001100F20F9246C50059
:10231400420F180337037400400A4E0F7F0A3043FC
:10232400CF4E17435A00640D520DDB0FC900B24261
:1023340000D1E5E001267340A61AB446534500D106
:10234400AFE0002E00DC0DE1002A3AD103000B437C
:1023540000D0E4E06B0709D00F232B40042B05D0F9
:102364002B1DAB42AD416D427F191D003B0200D4D1
:1023740088E0BB4B01349C4200D110E13A00B94BD8
:1023840051461A4001235007ED08520264050543E3
:10239400120B640D0B400021280012030D0D120BCB
:1023A40064052D0515436208AF4CDB072C4014432C
:1023B400640064081C4321001CBC90469946A24654
:1023C400F0BDA74B9C42C5D080231B041843634631
:1023D400382B00DDFDE01F2B00DD30E162462023B9
:1023E4009B1A02009A40664690460A009940F240C1
:1023F40046464B1E99413243114363460200DA407C
:10240400691A8D429B410D00BA1A5B42D71A3B02EE
:1024140035D57A02530A98464346002B00D1C4E0CE
:10242400404600F0E1FB0300083B1F2B00DDC5E044
:1024340020222900D21A4746D1409F400A009D40DD
:102444003A439C4200DDC0E01C1B631C1F2B00DDD3
:10245400E4E0202114002800C91AD8408C408D40A3
:102464000443DA40681E854117002543002471E7C0
:10247400424663461A4300D14CE2674645466B0721
:1024840000D069E7012351467807ED08FA080B40AC
:10249400054373498C4238D012036405120B640D52
:1024A40079E7002E00DC9AE0002A47D06C4A944277
:1024B40000D14FE78022120410436246382A00DC20
:1024C40008E10143481E81410022C9B24919D219C9
:1024D400A942BF410D007F42BF183A0200D442E135
:1024E4005F4A0134944200D14EE101205D4A6908FB
:1024F4003A4028400843D507054357089A4629E738
:1025040006000E4300D017E714E72900114300D159
:10251400F9E1802109030A431203120B3BE701236B
:102524005B429846C4446346002B72D1691A8D42BB
:102534009B413F1A5B42FF1A0D0068E702000A4301
:1025440000D107E7012252429046C4446246002A61
:1025540000D0E6E06918A942B6413F187642F7195F
:102564000D00BAE7002E00D080E0621C5205520D27
:10257400012A00DCF9E06A1A91464D45B6413A1A3F
:102584007642921B9046120200D499E04D1BA94258
:102594008941C71B49427A1A90469A463CE75246FB
:1025A4000123002513400022F5E6280000F01CFB5F
:1025B40020300300083B1F2B00DC39E72A002838B1
:1025C400824000259C4200DC3EE7264FE41A174077
:1025D400C0E60143481E81410022C9B210E7002E23
:1025E40000D0F1E0621C94465205520D012A00DC31
:1025F400A0E01B4A944500D1C5E06918A942924164
:102604003F185242D2194908D5070D43570864466A
:10261400A0E6134B9C4200D0D9E69BE611001F3C78
:10262400E1400C00202B00D180E04021CB1A9A40DD
:1026340015436A1E95410027254300241FE763467E
:102644000200203BDA406346202B71D040236646CB
:102654009B1B98400143481E814111430022CFE651
:10266400FF070000FFFF7FFFFFFF0F80002C48D013
:10267400CA4CA24200D1A2E07442A14680242404A0
:1026840027434C46382C00DDDBE01F2C00DD44E101
:102694004E462024A41B3E00A640A246B0464C460B
:1026A4002E00E640B4464646644626435446A540BA
:1026B4006C1EA54134002C434D46EF400D1B28E011
:1026C4004A4643464D461A4300D0A5E6002300245B
:1026D4000025DEE61F2A5ADC66462022921B0600ED
:1026E40096409146B04662460E00D6404246164396
:1026F4004A4691404A1E9141020060463143C2401D
:10270400E4E63C002C435AD0F443A146002C52D1B9
:102714004D1BA9428941C71B49427F1A14009A469E
:1027240075E69E4A944200D0C7E613E600227FE78E
:1027340000208FE7002C00D0C8E03B002B4300D1E1
:102744000FE103000B4300D104E66918A9429B4141
:102754003F185B42DF193B0200D41AE1904B0D0095
:102764001F406446F6E59A4689E63A002A43002C5F
:102774005CD1002A75D102000A4300D1CAE00700E7
:102784000D009A46E6E564460022002581E662468D
:102794000600203AD6406246B046202A00D1B7E06F
:1027A40040226646921B904001434246481E8141A6
:1027B400114300228AE6794CA24200D061E7070067
:1027C4000D0014009A46C5E5002C41D13C002C4371
:1027D40078D0F443A146002C20D0704CA24271D092
:1027E4004C46382C00DDB2E01F2C00DDBCE0202676
:1027F400341BA2463C005646B4404E46A0462C002C
:10280400F440A446444666463443A4465446A54090
:1028140064466E1EB54125434C46E7406D188D4213
:1028240089413F184942CF19140056E6002A2FD196
:1028340002000A4300D184E007000D009A46574C79
:1028440088E53D436F1EBD41ECB200270D1B60E7D8
:10285400524CA24236D0744280263604A1463743F5
:10286400BEE702000A4300D174E56A1A9046454562
:10287400B6413A1A7642921B9446120200D4F7E506
:102884004D1BA9428941C71B49427F1A9A4661E5FB
:1028940002000A433AD0ED087C072C438025FA084D
:1028A4002D032A4208D0C7082F4205D145072C0022
:1028B4003A009A46C9080C43670FD200E500174353
:1028C400364C47E507000D00140043E53A002A435F
:1028D40043D002000A4319D0ED087C072C4380251D
:1028E400FA082D032A4207D0C6082E4204D147070E
:1028F4003C003200C9080C43D700620FE5001743BF
:102904009A46264C26E50022002544E5234C21E581
:10291400002049E700230025BBE54C463E00203C4F
:10292400E6404C46B446202C31D040244E46A61BEB
:10293400B7403D436C1EA54164462C4300270D1B44
:10294400E7E6802200231203144C0025A1E53D4351
:102954006F1EBD410027EDB260E707000D000F4C6C
:10296400F8E407000D00F5E44E463C00203EF44038
:10297400A0464C46202C0ED040244E46A41BA74013
:102984003D436F1EBD4144460027254346E70027CB
:10299400CFE70D0073E50027F2E7C046FF0700000C
:1029A400FFFF7FFF70B5002830D0C317C4185C4008
:1029B400C50F200000F018F9174B184A1B1AD21A39
:1029C4001F2A18DD164AD21A9440002224035B05FC
:1029D400240B5B0D0021100024030A0D1205240BA7
:1029E4001443104A1B0514401C436400ED0764089B
:1029F4002C43210070BD210091400A000B21081ACC
:102A0400C4405B052403240B5B0DE3E7002500238E
:102A140000240022DEE7C0461E0400003304000048
:102A240013040000FFFF0F804200120E511C4302EA
:102A3400C9B270B55D0AC40F012915DDE021890012
:102A44008C466D071B0B6244002128000D0D2D05DB
:102A54002B431C4D52052B40520813435B00E407E3
:102A64005B082343190070BD002A15D1002D1FD027
:102A7400280000F0B9F80A281DDC0B232A001B1AD1
:102A8400DA4013000200153295400F4A1B03121A54
:102A940052051B0B520DD7E7002D06D080221B0BCD
:102AA400120313436D07094ACEE7084A0023CBE714
:102AB40000220023C8E703000B3B9D402B000025A8
:102AC400E3E7C046FFFF0F8089030000FF07000013
:102AD4004B0070B55E0D0C03751C640A420F6D0546
:102AE4002243C90FC4006D0D012D2ADD3B4BF318A1
:102AF400FE2B1ADC002B42DD8001451EA841D200CA
:102B04001043620F0243500704D00F2010400428E2
:102B140000D004328020C004104021D00133FF2BA8
:102B240003D09201520ADBB201E0FF2300225202D9
:102B3400520ADB0513435B00C9075B080B4318000B
:102B440070BD002E07D01443EFD08020D200800443
:102B54000243FF23D7E722430023002A03D00522A0
:102B6400D208FF2B03D05202520ADBB2DFE7002A5D
:102B740032D08020C00302435202520AD7E7180021
:102B8400173014DB8020000402431E20C01A1F28C3
:102B94000FDC2500124BF3189D406E1EB5419A4080
:102BA4002B0013432200C2401A430023ABE7002347
:102BB400D5E702256D42EB1A1500DD40202809D027
:102BC400084BF3189A401443621E944122000023D8
:102BD4002A4398E70022F6E70022A8E780FCFFFFDB
:102BE40082FCFFFFA2FCFFFF1C2101231B0498426F
:102BF40001D3000C10391B0A984201D3000A08398A
:102C04001B09984201D30009043902A2105C401840
:102C14007047C046040302020101010100000000E4
:102C24000000000080B500AFC046BD4680BDC04670
:102C340080B500AFFEE7C04680B500AFC046BD46D4
:102C440080BDC04680B500AFC046BD4680BDC0460D
:102C540080B500AF1B4B1B4A126801210A431A605E
:102C6400184B184A526818490A405A60154B154ABD
:102C7400126816490A401A60124B124A1268144923
:102C84000A401A600F4B0F4A526812490A405A60B0
:102C94000C4B0C4AD26A0F218A43DA62094B094A67
:102CA400126B0D490A401A63064B064A526B012106
:102CB4008A435A63034B00229A6000F07BF8C046B3
:102CC400BD4680BD001002400CB8FFF8FFFFF6FEC1
:102CD400FFFFFBFFFFFFC0FFACFEFFFF80B584B02A
:102CE40000AF0023FB600023BB6000237B60002354
:102CF4003B602A4B5B680C221340FB60FB68042B8F
:102D040007D0082B09D0002B31D1254B254A1A6056
:102D140031E0234B244A1A602DE0204B5A68F023FB
:102D24009B031340BB601D4B5A6880235B02134016
:102D34007B60BB689B0C0233BB607B68002B05D1B6
:102D4400BB681A4A5A43164B1A6014E0134BDB6AE9
:102D54000F22134001333B6039681348FDF7E0F953
:102D640003001A00BB685A430D4B1A6003E00C4B76
:102D74000C4A1A60C046094B5B68F02213401B09D9
:102D84000B4AD35CDBB2FB60054B1A68FB68DA4084
:102D9400034B1A60C046BD4604B080BD001002401B
:102DA4000000002000127A00001BB70000093D005B
:102DB4000400002080B582B000AF00237B600023B4
:102DC4003B601E4B11221A601D4B1D4A52685A600B
:102DD4001B4B1B4A52685A60194B194A52681949CD
:102DE4000A405A60164B164A5268A02189030A43C6
:102DF4005A60134B124A1268802149040A431A602C
:102E0400C0460F4B1A6880239B041340F9D00C4B27
:102E14000B4A526803218A435A60094B084A526894
:102E240002210A435A60C046054B5B680C221340DA
:102E3400082BF9D1C046BD4602B080BD0020024037
:102E440000100240FFFFC0FF0D488546002103E04B
:102E54000C4B5B58435004310B480C4B42189A42BC
:102E6400F6D30B4A02E0002313600432094B9A4262
:102E7400F9D3FFF7EDFE07F095FF07F0B3FCFEE78B
:102E840000200020C4B800080000002080040020B6
:102E94008004002048090020FEE7000080B582B0CD
:102EA40000AF78607B68094A93420BD180239B0072
:102EB4000121180000F026FE80239B000021180049
:102EC40000F020FEC046BD4602B080BD0024014093
:102ED40080B584B000AF786039600023FB607B6804
:102EE400DB68FB60FB680F4A1340FB603B681A68B1
:102EF4003B681B795B031A433B689B681A433B6836
:102F0400DB681A433B681B691A433B685B691343DC
:102F1400FA681343FB607B68FA68DA60C046BD4612
:102F240004B080BD03D2FFFF80B582B000AF7860EB
:102F34007B6800221A607B6800221A717B68002279
:102F44009A607B680022DA607B6800221A617B68E1
:102F540000225A61C046BD4602B080BD80B582B031
:102F640000AF78600A00FB1C1A70FB1C1B78002B56
:102F740006D07B689B6801221A437B689A6005E04F
:102F84007B689B6802221A437B689A60C046BD46F0
:102F940002B080BD80B582B000AF0200FB1D1A7084
:102FA400FB1D1B78002B07D0084B084A12688021B0
:102FB400C9030A431A6005E0044B044A1268044931
:102FC4000A401A60C046BD4602B080BD08270140D1
:102FD400FFFFBFFF80B586B000AFF860B9607A60CC
:102FE40000237B61FB689A6ABB681A43FB689A6298
:102FF4007B69072293437B617A697B6813437B6116
:10300400FB687A695A61C046BD4606B080BDC046B9
:1030140080B586B000AF786000237B6100233B61FC
:103024000023FB607B689B68802212061A437B683E
:103034009A607B689B68DB0FDB07FB603B690133AD
:103044003B613A69F0231B029A4202D0FB68002BD1
:10305400EFD17B689B68002B03DB7B681B6C7B6177
:1030640001E000237B617B691800BD4606B080BD8A
:1030740080B582B000AF78607B689B6804221A43F5
:103084007B689A60C046BD4602B080BD80B582B000
:1030940000AF78600A00FB1C1A70FB1C1B78002B25
:1030A40006D07B68DB6801221A437B68DA6006E09D
:1030B4007B68DB68012293431A007B68DA60C046B0
:1030C400BD4602B080BDC04680B582B000AF786016
:1030D40039607B68DB68022293431A007B68DA60FC
:1030E4007B68DA683B681A437B68DA60C046BD4691
:1030F40002B080BD80B584B000AF786039600F2322
:10310400FB1800221A700023BB603A6880235B041A
:10311400134005D07B689B680D4A1340BB6002E0F6
:103124007B681B68BB60BB683A68134004D00F23FC
:10313400FB1801221A7003E00F23FB1800221A70F7
:103144000F23FB181B781800BD4604B080BDC04691
:10315400FFFFFFFE80B582B000AF78607B681B681C
:10316400264A1A407B681A607B6800221A607B68D2
:1031740000225A607B6800229A607B680022DA6031
:103184007B681F4A934206D11E4B1E4A52680F2188
:103194000A435A602DE07B681B4A934206D1194BBF
:1031A400184A5268F0210A435A6022E07B68174AA1
:1031B400934207D1134B134A5268F02109010A4381
:1031C4005A6016E07B68124A934207D10D4B0D4AB0
:1031D4005268F02109020A435A600AE07B680D4AEA
:1031E400934206D1074B074A5268F02109030A4368
:1031F4005A60C046BD4602B080BDC046FEFF000016
:1032040008000240000002401C000240300002405E
:10321400440002405800024080B584B000AF78609A
:1032240039600023FB607B681B68FB60FB68184AFD
:103234001340FB603B689A683B681B6A1A433B680F
:103244001B691A433B685B691A433B689B691A43D1
:103254003B68DB691A433B685B6A1A433B689B6AB9
:103264001343FA681343FB607B68FA681A603B688F
:10327400DA687B685A603B681A687B689A603B68C6
:103284005A687B68DA60C046BD4604B080BDC0465B
:103294000F80FFFF80B582B000AF78600A00FB1C8E
:1032A4001A70FB1C1B78002B06D07B681B6801225C
:1032B4001A437B681A6005E07B681B68034A1A405E
:1032C4007B681A60C046BD4602B080BDFEFF0000A8
:1032D40080B584B000AFF860B960FB1D1A70FB1DA7
:1032E4001B78002B06D0FB681A68BB681A43FB687E
:1032F4001A6006E0FB681B68BA68D2431A40FB6890
:103304001A60C046BD4604B080BDC04680B584B0D6
:1033140000AF78600F23FB1800221A700A4B1B6859
:103324007A68134004D00F23FB1801221A7003E0BB
:103334000F23FB1800221A700F23FB181B781800A8
:10334400BD4604B080BDC0460000024080B582B0D6
:1033540000AF7860034B7A685A60C046BD4602B03D
:1033640080BDC0460000024080B586B000AF7860E2
:10337400396000237B6100233B610023FB60002351
:103384007B617CE001227B699A4013003B613B68CE
:103394001B683A691340FB60FA683B699A426BD137
:1033A4003B681B79012B03D03B681B79022B34D17A
:1033B4007B689B687A695200032191400A00D243DA
:1033C4001A407B689A607B689A683B685B7919004D
:1033D4007B695B0099400B001A437B689A607B68A9
:1033E4009B889BB27A6992B2110001228A4092B200
:1033F400D24392B213409AB27B689A807B689B88CE
:103404009AB23B689B7919007B699BB299400B0087
:103414009BB213439AB27B689A807B681B687A6973
:103424005200032191400A00D2431A407B681A607B
:103434007B681A683B681B7919007B695B009940BB
:103444000B001A437B681A607B68DB687A6992B266
:103454005200032191400A00D2431A407B68DA608B
:103464007B68DA683B68DB7919007B695B0099400B
:103474000B001A437B68DA607B6901337B617B69EB
:103484000F2B00D87EE7C046BD4606B080BDC046BF
:1034940080B584B000AF786008001100BB1C021C2A
:1034A4001A807B1C0A1C1A700023FB600023BB607B
:1034B4007B1C1A78BB1C1B8807210B409B009A407D
:1034C4001300FB60BB1C1B88DB089BB21800BB1CF1
:1034D4001B88DB089BB21A007B6808329200D35821
:1034E400BA1C128807210A4092000F2191400A0059
:1034F400D2431A4011007B68020008329200D15076
:10350400BB1C1B88DB089BB21A007B680832920044
:10351400D258FB681343BB60BB1C1B88DB089BB2FF
:103524001A007B6808329200B968D150C046BD4683
:1035340004B080BD80B584B000AF786039600023EA
:10354400FB607B681B68012293431A007B681A6046
:103554007B681B68FB60FB68274A1340FB603B6881
:103564005A683B689B681B021343FA681343FB6069
:103574007B68FA681A603B681B68204A1A407B68BB
:103584001A617B681B6801221A437B681A60002356
:10359400FB607B68FA689A607B68FA68DA603B686B
:1035A4009A693B681B691343FB607B68FA689A60FD
:1035B4007B689B68802212021A437B689A603B688E
:1035C400DB68FB607B681A68FB681A437B681A60D7
:1035D4007B685B68FB60FB68094A1340FB603B68DF
:1035E4005B69FA681343FB607B68FA685A60C046FB
:1035F400BD4604B080BDC046FFE0CF00FFFFFFF032
:10360400FF7FFF0780B582B000AF78600A00FB1C23
:103614001A70FB1C1B78002B06D07B681B680122E8
:103624001A437B681A6006E07B681B680122934397
:103634001A007B681A60C046BD4602B080BDC04611
:1036440080B582B000AF78600A00FB1C1A70FB1CC6
:103654001B78002B07D07B681B68802292011A43D9
:103664007B681A6005E07B681B68044A1A407B6823
:103674001A60C046BD4602B080BDC046FFDFFFFFF2
:1036840080B584B000AF78600A00BB1C1A800023A8
:10369400FB607B685B68FB60FB689B0A9B02FB60CA
:1036A400BB1C1B889B059B0DFA681343FB607B685E
:1036B400FA685A60C046BD4604B080BD80B584B087
:1036C40000AF78600A00FB1C1A700023FB607B6863
:1036D4005B68FB60FB68094A1340FB60FB1C1B78BA
:1036E4001A04FF231B041340FA681343FB607B682E
:1036F400FA685A60C046BD4604B080BDFFFF00FFB3
:1037040080B582B000AF78600A00BB1C1A80BB1C75
:103714001B88002B06D17B685B68084A1A407B68CB
:103724005A6006E07B685B688022D2001A437B689B
:103734005A60C046BD4602B080BDC046FFFBFFFFD5
:1037440080B582B000AF78600A00FB1C1A70FB1CC5
:103754001B78002B07D07B685B68802292011A4398
:103764007B685A6005E07B685B68044A1A407B68A2
:103774005A60C046BD4602B080BDC046FFDFFFFFB1
:1037840080B582B000AF78600A00FB1C1A70FB1C85
:103794001B78002B07D07B685B688022D2011A4318
:1037A4007B685A6005E07B685B68044A1A407B6862
:1037B4005A60C046BD4602B080BDC046FFBFFFFF91
:1037C40080B582B000AF78600A00FB1C1A70FB1C45
:1037D4001A787B689A62C046BD4602B080BDC04676
:1037E40080B582B000AF78607B685B6ADBB218009A
:1037F400BD4602B080BDC04680B584B000AF7860DD
:1038040039600023BB600F23FB1800221A707B6809
:103814009B69BB60BB683A681340BB60BB68002B04
:1038240004D00F23FB1801221A7003E00F23FB18A6
:1038340000221A700F23FB181B781800BD4604B031
:1038440080BDC04680B582B000AF7860074B074AA0
:10385400126B10218A431A63044B044A116B7A6871
:103864000A431A63C046BD4602B080BD0010024040
:1038740080B588B000AF78600023FB610023BB6192
:1038840000237B6100233B610023FB60664B5B6884
:103894000C221340FB61FB69042B07D0082B09D0D1
:1038A400002B31D17B68614A1A6031E07B68604A41
:1038B4001A602DE05C4B5A68F0239B031340BB61F4
:1038C400594B5A6880235B0213407B61BB699B0C94
:1038D4000233BB617B69002B05D1BB69554A5A434E
:1038E4007B681A6014E0504BDB6A0F2213400133EB
:1038F4003B6139694E48FCF713FC03001A00BB69AD
:103904005A437B681A6003E07B68484A1A60C046E1
:10391400454B5B68F0221340FB61FB691B09FB61AB
:10392400454AFB69D3181B78DBB2FB607B681A68D5
:10393400FB68DA407B685A603B4B5A68E023DB0043
:103944001340FB61FB691B0AFB613B4AFB69D3180B
:103954001B78DBB2FB607B685A68FB68DA407B68E3
:103964009A60314B1A6B80235B00134003D17B6850
:10397400324ADA6010E02C4B5A688023DB01134092
:1039840005D17B689B685A087B68DA6004E07B6831
:103994009B689A087B68DA60234B1B6B40221340B8
:1039A40003D17B68264A1A6103E07B6880221202F5
:1039B4001A611D4B1B6B1022134003D17B681B4AF9
:1039C4005A6103E07B681A687B685A61164B1B6B6B
:1039D4000322134004D17B689A687B689A611EE0D5
:1039E400114B1B6B03221340012B04D17B681A6813
:1039F4007B689A6113E00C4B1B6B03221340022B70
:103A040004D17B68802212029A6108E0064B1B6B8A
:103A140003221340032B02D17B68044A9A61C046F7
:103A2400BD4608B080BDC0460010024000127A00B6
:103A3400001BB70000093D0014000020809FD50042
:103A44001280000080B582B000AF78600A00FB1CD1
:103A54001A70FB1C1B78002B06D0094B084A5169CD
:103A64007A680A435A6106E0054B054A5269796847
:103A7400C9430A405A61C046BD4602B080BDC04633
:103A84000010024080B582B000AF78600A00FB1CD1
:103A94001A70FB1C1B78002B06D0094B084A91694D
:103AA4007A680A439A6106E0054B054A9269796887
:103AB400C9430A409A61C046BD4602B080BDC046B3
:103AC4000010024080B582B000AF78600A00FB1C91
:103AD4001A70FB1C1B78002B06D0094B084AD169CD
:103AE4007A680A43DA6106E0054B054AD2697968C7
:103AF400C9430A40DA61C046BD4602B080BDC04633
:103B04000010024080B582B000AF78600A00FB1C50
:103B14001A70FB1C1B78002B06D0094B084AD1688D
:103B24007A680A43DA6006E0054B054AD268796888
:103B3400C9430A40DA60C046BD4602B080BDC046F3
:103B44000010024080B584B000AF786039600E2365
:103B5400FB1800221A800E23FB187A6812881A8038
:103B64007B682D4A934208D07A688023DB059A4209
:103B740003D07B68294A934210D10E23FB180E22EE
:103B8400BA18128870218A431A803B6859880E2318
:103B9400FB180E22BA1812880A431A807B68204A3E
:103BA400934210D00E23FB180E22BA1812881D4916
:103BB4000A401A803B6819890E23FB180E22BA1892
:103BC40012880A431A807B680E22BA1812881A8057
:103BD4003B685A687B68DA623B681A887B681A8596
:103BE4007B680D4A93420BD07B680F4A934207D0FF
:103BF4007B680E4A934203D07B680D4A934204D1FA
:103C04003B689B7A9AB27B681A867B6801229A8207
:103C1400C046BD4604B080BD002C014000040040F5
:103C240000100040FFFCFFFF004001400044014041
:103C34000048014080B582B000AF78600A00FB1CE8
:103C44001A70FB1C1B78002B08D07B681B889BB266
:103C5400802213439AB27B681A8007E07B681B8832
:103C64009BB2802293439AB27B681A80C046BD46B9
:103C740002B080BD80B582B000AF78600A00FB1C42
:103C84001A70FB1C1B78002B08D07B681B889BB226
:103C9400012213439AB27B681A8007E07B681B8871
:103CA4009BB2012293439AB27B681A80C046BD46F8
:103CB40002B080BD80B582B000AF78600A00FB1C02
:103CC4001A70FB1C1B78002B0AD07B6844229B5A79
:103CD4009BB20A4A134399B27B684422995209E081
:103CE4007B6844229B5A9BB25B045B0C99B27B6851
:103CF40044229952C046BD4602B080BD0080FFFFF9
:103D040080B584B000AF786039600A23FB180022C4
:103D14001A800E23FB1800221A800C23FB180022A1
:103D24001A807B681B8C9BB2584A13409AB27B68FA
:103D34001A840E23FB187A68128C1A800C23FB1841
:103D44007A6892881A800A23FB187A68928B1A8000
:103D54000A23FB180A22BA18128870218A431A808F
:103D64000A23FB180A22BA18128803218A431A80EC
:103D74003B6819880A23FB180A22BA1812880A43D6
:103D84001A800E23FB180E22BA18128840490A40E2
:103D94001A803B689B891B0299B20E23FB180E22E2
:103DA400BA1812880A431A803B685B881B0299B2CE
:103DB4000E23FB180E22BA1812880A431A807B6855
:103DC400344A93424BD10E23FB180E22BA181288A0
:103DD40031490A401A803B68DB891B0299B20E23E1
:103DE400FB180E22BA1812880A431A800E23FB18F5
:103DF4000E22BA18128829490A401A803B689B8807
:103E04001B0299B20E23FB180E22BA1812880A4319
:103E14001A800C23FB180C22BA18128820490A4075
:103E24001A800C23FB180C22BA1812881D490A4068
:103E34001A803B681B8A1B0199B20C23FB180C22C5
:103E4400BA1812880A431A803B685B8A1B0199B22C
:103E54000C23FB180C22BA1812880A431A807B68B8
:103E64000C22BA1812889A807B680A22BA1812881F
:103E74009A833B689A687B68DA637B680E22BA1877
:103E840012881A84C046BD4604B080BDFFFEFFFF01
:103E9400FFFDFFFF002C0140FFF7FFFFFFFBFFFFCB
:103EA400FFEFFFFFFFDFFFFF80B584B000AF786056
:103EB40039600C23FB1800221A800A23FB18002205
:103EC4001A800E23FB1800221A807B681B8C9BB27D
:103ED4003D4A13409AB27B681A840A23FB187A6815
:103EE400128C1A800E23FB187A6892881A800C238D
:103EF400FB187A68928B1A800C23FB180C22BA18D0
:103F0400128832490A401A800C23FB180C22BA1872
:103F140012882F490A401A803B681B881B0299B2F9
:103F24000C23FB180C22BA1812880A431A800A239D
:103F3400FB180A22BA18128826490A401A803B68DC
:103F44009B891B0399B20A23FB180A22BA18128808
:103F54000A431A803B685B881B0399B20A23FB1847
:103F64000A22BA1812880A431A807B681A4A9342B2
:103F740012D10E23FB180E22BA18128817490A40D0
:103F84001A803B681B8A9B0199B20E23FB180E22F0
:103F9400BA1812880A431A807B680E22BA1812884B
:103FA4009A807B680C22BA1812889A833B689A68B4
:103FB4007B681A647B680A22BA1812881A84C0467D
:103FC400BD4604B080BDC046FFEFFFFFFF8FFFFF7B
:103FD400FFFCFFFFFFDFFFFF002C0140FFBFFFFFDF
:103FE40080B58EB000AF7860396000237B63002316
:103FF4003B630023FB620023BB627B681B680122D6
:1040040093431A007B681A607B685B687B637B6BF5
:104014004F4A13407B633B689B687A6B13437B6313
:104024007B687A6B5A607B681B687B637B6B494A4D
:1040340013407B633B685A683B68DB681A433B6800
:104044001B6913437A6B13437B637B687A6B1A6037
:104054007B689B687B637B6B3F4A13407B633B6855
:104064005B697A6B13437B637B687A6B9A600C237E
:10407400FB181800FFF7FCFB7B68384A934204D115
:104084000C23FB189B693B6303E00C23FB189B6820
:104094003B637B681A6880231B0213400FD03A6B82
:1040A40013009B009B189A009A183B681B685B00DE
:1040B40019001000FCF734F80300FB620EE03A6BC1
:1040C40013009B009B189A009A183B681B689B007E
:1040D40019001000FCF724F80300FB62FB6A64215A
:1040E4001800FCF71DF803001B017B637B6B1B09A5
:1040F40064225343FA6AD31ABB627B681A6880232A
:104104001B0213400ED0BB6ADB003233642118005B
:10411400FCF706F803001A00072313407A6B1343D5
:104124007B630DE0BB6A1B01323364211800FBF78B
:10413400F7FF03001A000F2313407A6B13437B63CA
:104144007B6B9AB27B689A81C046BD460EB080BD37
:10415400FFCFFFFFF3E9FFFFFFFCFFFF0038014043
:1041640080B582B000AF78600A00FB1C1A70FB1C9B
:104174001B78002B06D07B681B6801221A437B68DE
:104184001A6006E07B681B68012293431A007B686F
:104194001A60C046BD4602B080BDC04680B582B03C
:1041A40000AF78600A00BB1C1A80BB1C1B88DB05AF
:1041B400DB0D9AB27B681A85C046BD4602B080BD4D
:1041C40080B582B000AF78607B689B8C9BB2DB05C6
:1041D400DB0D9BB21800BD4602B080BD80B588B02F
:1041E40000AFF860B960FB1D1A700023BB610023A7
:1041F4007B6100233B610023FB61FB68FB61BB68BF
:104204009BB21B0A9BB2BB61BB68FF2213407B615C
:1042140001227B699A4013003B61BB69022B03D1E5
:10422400FB690433FB6105E0BB69032B02D1FB6925
:104234000833FB61FB1D1B78002B06D0FB69FA6970
:1042440011683A690A431A6006E0FB69FA69126860
:104254003969C9430A401A60C046BD4608B080BDEA
:1042640080B586B000AF786039600023FB6000231E
:104274007B610023BB601323FB1800221A703B6888
:104284009BB21B0A9BB2BB603B68FF2213407B615D
:1042940001227B699A4013007B61BB68012B05D125
:1042A4007B681A687B6913407B610DE0BB68022B55
:1042B40005D17B685A687B6913407B6104E07B68A5
:1042C4009A687B6913407B613B681B0CFB6001228D
:1042D400FB689A401300FB607B68DA69FB68134053
:1042E400FB607B69002B07D0FB68002B04D01323F1
:1042F400FB1801221A7003E01323FB1800221A7022
:104304001323FB181B781800BD4606B080BDC046B9
:1043140080B584B000AF786039600023FB6000236F
:10432400BB603B681B0CFB600122FB689A401300D6
:10433400BB607B68BA681A62C046BD4604B080BDE3
:1043440090B583B000AF7860264B6421180003F069
:10435400EDFE031E02D0244B01225A71234B5B78DD
:10436400DBB2002B39D1224B1B78002B35D1214BEA
:104374001B78DBB2022B28D11B4B5B79DBB2012B00
:104384002BD17B681C6A194B1B78DBB21800FCF735
:10439400BBFE031C191C201CFCF75EF8031E08D08E
:1043A4006421012002F040FC4621022002F03CFC82
:1043B40007E03C21012002F0CBFC2821022002F07E
:1043C400C7FC094B00225A7107E03221012002F098
:1043D400DFFD1921022002F0DBFDC046BD4603B01B
:1043E40090BDC0469C0400209C050020940600203B
:1043F400160500201409002080B582B000AF020029
:10440400FB1D1A70064BFA1D127811001F220A4078
:10441400012191400A001A60C046BD4602B080BD29
:1044240000E100E0B0B582B000AF02003960FB1DCE
:104434001A70FB1D1B787F2B32D92F4CFB1D1B7868
:104444001A000F231340083B99082B4AFB1D1B78C5
:1044540018000F230340083B9B0806339B00D31826
:1044640004331B68FA1D1278100003220240D200A4
:10447400FF2090400200D2431A403B689B01FF207A
:104484001840FB1D1B781D0003232B40DB009840C4
:1044940003001A438B1D9B00E31804331A6027E0C2
:1044A400164CFB1D1B785BB29B081449FA1D12784D
:1044B40052B29208C03292005258F91D097808008D
:1044C40003210140C900FF2088400100C943114075
:1044D4003A689201FF201040FA1D12781500032259
:1044E4002A40D200904002000A43C0339B001A5174
:1044F400C046BD4602B0B0BD00ED00E000E100E002
:1045040080B584B000AFF860B9607A60FB680022BF
:104514005A60FB6800229A60FB687A68DA60FB687C
:10452400BA681A60C046BD4604B080BD80B586B086
:1045340000AFF860B9607A60BB683B6100237B61BF
:1045440023E0FB689A68FB685B689A4218D03B6971
:104554005A1C3A61FA681168FA6892688A181278E3
:104564001A70FB689B685A1CFB689A60FB689A681F
:10457400FB68DB689A4205D1FB6800229A6001E07F
:104584007B6907E07B6901337B617A697B689A42C6
:10459400D7DB7B681800BD4606B080BD80B588B007
:1045A40000AF80235A003849384B1800FFF7A8FFA2
:1045B4003749384B80221800FFF7A2FF3B00E12265
:1045C40092021A603B0000225A603B0000229A606B
:1045D4003B000022DA603B0000225A613B000C22BF
:1045E4001A6180239B0201211800FFF72BFA802314
:1045F4009B0201211800FFF765FA9023DB050122D5
:1046040002211800FEF744FF9023DB050122032159
:104614001800FEF73DFF1823FB180C221A6018231C
:10462400FB1802221A711823FB1803225A7118234B
:10463400FB1800229A711823FB180122DA7118233F
:10464400FA189023DB0511001800FEF78DFE3B00DD
:10465400114A19001000FFF7C3FC10490E4B012248
:104664001800FFF7BBFD03211C20FFF7DBFE1C2015
:10467400FFF7C2FE084B01211800FFF771FDC04689
:10468400BD4608B080BDC046B0060020A405002089
:10469400EC070020B8070020004400400501050095
:1046A40090B583B000AF284A284B11001800FFF7DB
:1046B400D7FD031E1DD0244A244B11001800FFF718
:1046C40027FE234B1B78224B1B78DBB21C001F4BAD
:1046D4001800FFF775FD0300DAB21E4B1A551C4B88
:1046E4001B78DBB20133DAB2194B1A701A4B012270
:1046F4009A701A4A154B11001800FFF7B1FD031EFA
:104704001DD0164A114B11001800FFF701FEF91DC8
:10471400134B01221800FFF709FF0300012B08D1F6
:10472400FB1D1B789BB2094A19001000FFF736FDE8
:1047340005E00A49054B00221800FFF74FFDC0466B
:10474400BD4603B090BDC0460501050000440040CD
:10475400A2050020B00600209C05002007010700E8
:10476400B807002080B582B000AFB84B9B78DBB2AD
:10477400012B00D054E1B64B1B78DBB2532B2AD16A
:10478400B34B5B78DBB2542B25D1B14B9B78DBB2B6
:10479400412B20D1AE4BDB78DBB2522B1BD1AC4B7F
:1047A4001B79DBB2452B16D1A94B5B79DBB24E2BBF
:1047B40011D1A74B9B79DBB2442B0CD180235A0037
:1047C400A34B0021180006F04FFBA24B00221A70E5
:1047D40002F04AFE21E19E4B1B78DBB2532B39D108
:1047E4009B4B5B78DBB2542B34D1994B9B78DBB277
:1047F400412B2FD1964BDB78DBB2532B2AD1944B30
:104804001B79DBB2542B25D1914BDB79DBB2452BE1
:1048140020D18F4B1B7ADBB24E2B1BD18C4B5B7A96
:10482400DBB2442B16D18A4B5B79DAB28A4B1A700D
:10483400874B9B79DAB2884B5A7000F09DF980233C
:104844005A00834B0021180006F00EFB814B002216
:104854001A70E2E07E4B1B78DBB2532B59D17C4BB0
:104864005B78DBB2542B54D1794B9B78DBB2412B70
:104874004FD1774BDB78DBB2532B4AD1744B1B7986
:10488400DBB24C2B45D1724B1B7ADBB2452B40D1AA
:104894006F4B5B7ADBB24E2B3BD16D4B9B7ADBB219
:1048A400442B36D16D4B5B78DAB26D4B1A706B4B7F
:1048B4009B78DAB26B4B1A70654B5B79DAB2674B53
:1048C4005A70634B9B79DAB2644B9A70FB1D634A4E
:1048D40012781A705E4BDB79DAB2604B1A705F4B58
:1048E4001B78DBB2FA1D12789A4205D05E4B002287
:1048F4001A715D4B00221A6000F03EF980235A00C1
:10490400534B0021180006F0AFFA524B00221A70E4
:1049140083E04F4B1B78DBB2532B3ED14C4B5B787F
:10492400DBB2542B39D14A4B9B78DBB2412B34D1C7
:10493400474BDB78DBB2532B2FD1454B1B79DBB2D2
:10494400492B2AD1424B1B7ADBB2452B25D1404B54
:104954005B7ADBB24E2B20D13D4B9B7ADBB2442BEE
:104964001BD13B4B5B79DAB2404B1A70384B9B79C5
:10497400DAB23E4B5A70364BDB79DAB23B4B9A7063
:1049840000F0FAF880235A00314B0021180006F099
:104994006BFA304B00221A703FE02D4B1B78DBB2D0
:1049A400532B3AD12A4B5B78DBB2542B35D1284BAD
:1049B4009B78DBB2412B30D1254BDB78DBB2432B28
:1049C4002BD1234B1B79DBB2502B26D1204B9B7967
:1049D400DBB2452B21D11E4BDB79DBB24E2B1CD134
:1049E4001B4B1B7ADBB2442B17D1194B5B79DAB220
:1049F4001F4BDA721E4B01221A701D4B01229A7052
:104A04001B4B01221A7180235A00114B00211800FC
:104A140006F02AFA0F4B00221A700C4B00229A70EF
:104A24000A4BDB78DBB2012B0CD180235A00084BF4
:104A34000021180006F018FA064B00221A70034BE6
:104A44000022DA70C046BD4602B080BD9C0500203D
:104A5400B0060020A20500209406002014090020BE
:104A6400A3050020720600207408002028090020F5
:104A7400C005002090B58BB000AF2723FB1800229F
:104A84001A702723FC183B1D20223E21180002F037
:104A9400E1FF030023703B1D1B68304A934226D17B
:104AA4003B1DDB692E4A934221D12E493B1D09222D
:104AB40008009B180322190006F098F92A493B1DA7
:104AC400062208009B180322190006F08FF9274AD2
:104AD4003B1D100004330222190006F087F9244A12
:104AE4003B1D0C3313CB13C21B68136031E01D490B
:104AF400204B092208009B180322190006F076F9BE
:104B040019491C4B062208009B180322190006F0C1
:104B14006DF9164A174B100004330222190006F0EF
:104B240065F9134A134B0C3313CB13C21B68136080
:104B34002723FC183E2002F085FE03002370272360
:104B4400FC180C4B20223E21180003F021F803002E
:104B54002370C046BD460BB090BDC04667452301D7
:104B6400EFCDAB8928090020140900209406002009
:104B740000090020E0B4000890B58BB000AF2723F3
:104B8400FC183E2002F05EFE030023703B1D194A10
:104B94001A603B1D184ADA613B1D092217499B180C
:104BA4000322180006F022F93B1D062214499B1823
:104BB4000322180006F01AF93B1D124A04331100AF
:104BC4000222180006F012F93B1D0F4A0C3313CAD7
:104BD40013C312681A602723FC183B1D20223E21B0
:104BE400180002F0D5FF03002370C046BD460BB089
:104BF40090BDC04667452301EFCDAB89280900204D
:104C040014090020940600200009002090B587B004
:104C140000AF1723FC183F2002F014FE030023709A
:104C24003B1D0C4A1A603B1D0B4ADA603B1D0B4AC4
:104C3400043303CA03C31723FC183B1D10223F216E
:104C4400180002F0A5FF03002370C046BD4607B05C
:104C540090BDC046AAEFCDABACACACAC74080020A0
:104C640090B587B000AF1723FB1800221A701723E2
:104C7400FC183B1D10223F21180002F0EBFE03003C
:104C840023703B1D1B68144A93420AD13B1DDB6809
:104C9400124A934205D1124A3B1D043303CB03C28B
:104CA40015E00F4A0F4B043303CB03C21723FC1840
:104CB4003F2002F0C7FD030023701723FC18094BA3
:104CC40010223F21180002F063FF03002370C04646
:104CD400BD4607B090BDC046AAEFCDABACACACAC02
:104CE4007408002000B5000880B500AF054B18001B
:104CF40000F0B6FC034B180000F006F8C046BD46B1
:104D040080BDC0463C06002080B588B000AF786006
:104D1400E84B1B78002B01D000F08CFCFA235A00DE
:104D2400E54B1100180003F001FA031E01D100F055
:104D340081FC0823FB1818000A231A00002106F03E
:104D440093F87B6830229B5C012B00D0CCE07B681D
:104D54001B68FB617B685B68BB617B689B687B61EC
:104D64000021002005F0FAF97B681433180005F0DF
:104D7400BDFA0021232005F0F1F9D04B180005F00D
:104D8400B5FA7B68143314220021180006F06CF87D
:104D94000121002005F0E2F9C94B180005F0A6FA3C
:104DA4000221002005F0DAF9C64B180005F09EFA3E
:104DB40002215A2005F0D2F90823F918FB690122CF
:104DC400181C02F057FB0823FB18180005F08EFA94
:104DD4000823FB180A220021180006F045F80321D5
:104DE400002005F0BBF9B84B180005F07FFA032149
:104DF4005A2005F0B3F90823F918BB690122181CDD
:104E040002F038FB0823FB18180005F06FFA08239A
:104E1400FB180A220021180006F026F804210020BD
:104E240005F09CF9A94B180005F060FA04215A20FA
:104E340005F094F90823F9187B690122181C02F083
:104E440019FB0823FB18180005F050FA0823FB1877
:104E54000A220021180006F007F87B681B69181C59
:104E6400FCF7E8F802000823FB181900100002F010
:104E740099FB0521002005F071F9954B180005F008
:104E840035FA05215A2005F069F90823FB181800A2
:104E940005F02CFA0823FB180A220021180005F05B
:104EA400E3FF7B68DB681A000823FB181900100075
:104EB40002F078FB0621002005F050F9854B18001C
:104EC40005F014FA06215A2005F048F90823FB18C6
:104ED400180005F00BFA0823FB180A220021180019
:104EE40005F0C2FF00F0A6FB7B6830229B5C022B1E
:104EF40000D0ACE10021002005F030F97B681433C8
:104F0400180005F0F3F90021232005F027F96B4B75
:104F1400180005F0EBF97B68143314220021180003
:104F240005F0A2FF0121002005F018F9644B1800D8
:104F340005F0DCF9684B5A68684B1A60664B1A68CE
:104F4400674B1A600221002005F008F9654B180030
:104F540005F0CCF902212F2005F000F9624B18006E
:104F640005F0C4F9614B1B78DBB2012B0DD15F4B0B
:104F7400DB7ADBB2022B08D10221522005F0EEF8D5
:104F84005B4B180005F0B2F93DE0534B5A68534BA4
:104F94001B68191C101CFBF745FA031E2BD04E4B43
:104FA4005B68FE218905181CFBF74CFA031E07D128
:104FB400494B5B684F49181CFBF758FA031E08D08D
:104FC4000221522005F0CAF84B4B180005F08EF967
:104FD40019E0414B5B680822B9180222181C02F040
:104FE40049FA0221522005F0B9F80823FB181800E9
:104FF40005F07CF907E00221522005F0AFF83F4BA1
:10500400180005F073F90823FB180A220021180080
:1050140005F02AFF304B1B680822B9180222181C1D
:1050240002F028FA0321002005F098F8344B180008
:1050340005F05CF903212F2005F090F82A4B1800A5
:1050440005F054F9294B1B78DBB2012B0DD1274B0A
:10505400DB7ADBB2012B08D10321522005F07EF864
:10506400234B180005F042F966E01B4B1A681C4BF1
:105074001B68191C101CFBF7D5F9031E54D0164BE2
:105084001B68FE218905181CFBF7DCF9031E07D1F8
:10509400114B1B681749181CFBF7E8F9031E31D0A4
:1050A4000321522005F05AF8134B180005F01EF99D
:1050B40042E0C046D5050020A0040020C807002017
:1050C40098B10008B0B10008C0B10008D0B1000820
:1050D400E0B10008F0B1000834090020A404002065
:1050E400A804002000B2000808B20008C00500208F
:1050F40010B200080000604118B2000820B2000895
:105104002CB20008A64B1B680822B9180222181CEE
:1051140002F0B0F90321522005F020F80823FB180F
:10512400180005F0E3F807E00321522005F016F813
:105134009C4B180005F0DAF80823FB180A2200211A
:10514400180005F091FE0421002005F007F8964BA5
:10515400180005F0CBF8954B1B78012B1FD1944B0D
:105164001A78924B1B789A4207D00421522004F0FB
:10517400F5FF904B180005F0B9F80823FB18180048
:1051840005F0E8FE03001A000823FB189A188A4B5E
:105194001000190007231A0005F028FE46E0834B8F
:1051A4001B78022B1FD1824B1A78804B1B789A42B2
:1051B40007D00421522004F0D1FF7E4B180005F0E3
:1051C40095F80823FB18180005F0C4FE03001A0024
:1051D4000823FB189A18794B1000190003231A00AE
:1051E40005F004FE22E0714B1B78002B1ED1704B9E
:1051F4001A786E4B1B789A4207D00421522004F08F
:10520400ADFF6C4B180005F071F80823FB1818006B
:1052140005F0A0FE03001A000823FB189A18684B37
:105224001000190006231A0005F0E0FD04215220A5
:1052340004F094FF0823FB18180005F057F808231E
:10524400FB180A220021180005F00EFEF2E17B682B
:1052540030229B5C032B00D0ECE10021002004F001
:105264007DFF7B681433180005F040F800212320EB
:1052740004F074FF534B180005F038F87B681433BE
:1052840014220021180005F0EFFD0121002004F094
:1052940065FF4D4B180005F029F80221002004F0A9
:1052A4005DFF4A4B180005F021F8494B1B78DBB22F
:1052B400022B17D1464B1B78DAB2464B1B789A4225
:1052C40007D00221482004F049FF364B180005F0AE
:1052D4000DF802214E2004F041FF3F4B180005F069
:1052E40005F81BE03A4B1B78DBB2012B16D1384B87
:1052F4001B78DAB2374B1B789A4207D002214E2032
:1053040004F02CFF354B180004F0F0FF0221482074
:1053140004F024FF324B180004F0E8FF0823FB18C4
:105324000A220021180005F09FFD0321002004F04B
:1053340015FF2C4B180004F0D9FF2B4B1B79DBB263
:10534400092B09D8284B1B79DBB2012B04D003218C
:10535400782004F003FF52E0234B1B79DBB2012BCE
:1053640004D10321792004F0F9FE48E01E4B1B7997
:10537400DBB2092B09D91C4B1B79DBB20B2B04D0F4
:105384000321722004F0EAFE39E0174B1B79DBB2EB
:105394000B2B2BD10321732004F0E0FE2FE0C04639
:1053A4003409002020B2000838B20008C1040020EB
:1053B400C204002048B2000850B2000858B20008E5
:1053C4005CB20008C807002098B1000864B2000865
:1053D40014090020B407002070B200087CB2000851
:1053E40088B2000894B2000874080020934B1B791B
:1053F400DBB2132B03D90321732004F0AFFE8F4BD0
:105404001B79DBB21A000823FB181900100002F004
:10541400C9F80823FB18180004F068FF0823FB18D8
:105424000A220021180005F01FFD0421002004F0C9
:1054340095FE834B180004F059FF0823FB180A2239
:105444000021180005F010FD7E4B9B78DAB27E4BEC
:105454001B789A4218D07B4B5B78DAB27B4B1B7873
:105464009A4211D004215C2004F078FE784B180095
:1054740004F03CFF734B9B78DAB2734B1A70714B98
:105484005B78DAB2714B1A706E4B9B78DBB2092BE6
:1054940033D86C4B5B78DBB20A2B2ED904216620FF
:1054A40004F05CFE674B9B78DBB21A000823FB1800
:1054B4001900100002F076F80823FB18180004F015
:1054C40015FF04216C2004F049FE624B180004F01F
:1054D4000DFF0421722004F041FE5A4B5B78DBB2CD
:1054E4001A000823FB181900100002F05BF80823C7
:1054F400FB18180004F0FAFE7AE0524B9B78DBB2FA
:105504000A2B33D94F4B5B78DBB2092B2ED80421FD
:10551400662004F023FE4B4B9B78DBB21A00082371
:10552400FB181900100002F03DF80823FB181800BE
:1055340004F0DCFE0421722004F010FE454B180038
:1055440004F0D4FE0421782004F008FE3D4B5B787F
:10555400DBB21A000823FB181900100002F022F82D
:105564000823FB18180004F0C1FE41E0354B9B787A
:10557400DBB2092B3CD9334B9B78DBB20E2B37D8EB
:10558400304B5B78DBB2092B32D92E4B5B78DBB224
:105594000E2B2DD804215F2004F0E0FD294B9B78CD
:1055A400DBB21A000823FB181900100001F0FAFFFF
:1055B4000823FB18180004F099FE04216C2004F061
:1055C400CDFD244B180004F091FE0421722004F058
:1055D400C5FD1C4B5B78DBB21A000823FB181900CD
:1055E400100001F0DFFF0823FB18180004F07EFE12
:1055F4000521002004F0B2FD174B180004F076FEDC
:105604000521722004F0AAFD144B1B78DBB21A00AA
:105614000823FB181900100001F0C4FF0823FB182D
:10562400180004F063FE0823FB180A220021180066
:1056340005F01AFCC046BD4608B080BD74080020C1
:10564400A8B200081409002072060020A305002057
:10565400B4B20008BCB20008C0B20008940600202E
:1056640080B582B000AF78607B6831229B5C0A2BE6
:1056740022D17B6830229B5C012B04D17B683022D1
:105684000221995412E07B6830229B5C022B04D1E6
:105694007B6830220321995408E07B6830229B5CAC
:1056A400032B03D17B6830220121995404F0BAFD05
:1056B4007B68312200219954C046BD4602B080BDAA
:1056C40090B583B000AF174B1B78012B26D1164B36
:1056D4001A78164B1B789A4205D1154B01221A7081
:1056E400124B00221A70124B1B78002B13D0FC1D96
:1056F400002000F007F903002370FB1D1B78002B2A
:105704000CD0084B00221A70074B00221A70084B69
:1057140000221A7002E0012000F0F4F8C046BD46F1
:1057240003B090BDBE040020BD040020C0040020CE
:10573400BF04002080B500AF0D4BFA21180002F021
:10574400F5FC031E11D00B4B0421180002F018FCC9
:10575400031E05D0084B4021180002F001FC04E0B0
:10576400054B4021180002F0EBFBC046BD4680BD4E
:10577400AC040020000400480014004880B500AFC9
:10578400FA239A000D4B1100180002F0CFFC031EFF
:1057940011D00B4B1A780B4B1A700B4B04211800C9
:1057A40002F0EEFB031E03D0054B01221A7002E047
:1057B400034B02221A70C046BD4680BDB4040020CB
:1057C400C1040020C20400200008004880B500AFD6
:1057D400434B1B78012B00D171E0424B1B78022B09
:1057E40036D0032B02D0012B54D05DE03E4B1B6816
:1057F4005A1C3D4B1A603C4B1B683C4A93425DD19A
:105804003B4B1B780133DAB2394B1A70364B00220A
:105814001A60344B5A78364B1B789A424ED1314B2E
:105824009B781A0013009B009B185B0064211800EE
:10583400FAF700FD0300DAB22E4B1A70284B01224E
:105844001A702D4B00221A70294B00221A7035E071
:105854002A4B1B78022B03D0284B1B78002B06D134
:105864001F4B00221A70244B00221A7027E01D4B94
:105874009B781A0013009B009B185B00642118009E
:10588400FAF7D8FC0300DAB21A4B1A70144B01224F
:105894001A7014E0124B01221A70174B00221A706E
:1058A400104B00221A700AE00E4B00221A70124BA1
:1058B40000221A700A4B00221A7000E0C046084BFE
:1058C4001B78012B09D10C4B1B78012B05D00C4BF9
:1058D4001B780133DAB20A4B1A70C046BD4680BD4C
:1058E400BE04002028090020B804002080510100D3
:1058F400BC040020C0040020BF040020C104002018
:10590400BD04002090B585B000AF0200FB1D1A70E5
:105914000F23FB1800221A70114B1421180002F0F7
:1059240005FC031E14D0FB1D1B78002B08D00F238D
:10593400FC185F21002001F077F90300237007E0D1
:105944000F23FC180021002001F002FA0300237049
:105954000F23FB181B781800BD4605B090BDC04648
:10596400B004002080B582B000AF0200FB1D1A70A5
:10597400064BFA1D127811001F220A4001219140A2
:105984000A001A60C046BD4602B080BD00E100E0D6
:10599400B0B582B000AF02003960FB1D1A70FB1D68
:1059A4001B787F2B32D92F4CFB1D1B781A000F2339
:1059B4001340083B99082B4AFB1D1B7818000F2342
:1059C4000340083B9B0806339B00D31804331B6831
:1059D400FA1D1278100003220240D200FF209040EA
:1059E4000200D2431A403B689B01FF201840FB1D74
:1059F4001B781D0003232B40DB00984003001A434F
:105A04008B1D9B00E31804331A6027E0164CFB1D22
:105A14001B785BB29B081449FA1D127852B29208A3
:105A2400C03292005258F91D097808000321014040
:105A3400C900FF2088400100C94311403A6892011F
:105A4400FF201040FA1D1278150003222A40D200CC
:105A5400904002000A43C0339B001A51C046BD4621
:105A640002B0B0BD00ED00E000E100E080B594B00C
:105A740000AF80239B0201211800FDF7E3FF4423BC
:105A8400FB1860221A604423FB1803221A71442372
:105A9400FB180022DA714423FA189023DB05110065
:105AA4001800FDF761FC594B1800FDF7F7F9802346
:105AB4009B0001211800FDF7E5FF01210120FDF7FE
:105AC400C1FF534B1800FDF745FB3B00514A1A60D8
